:020000040800F2
:1000000000040020450100085B02000857020008B8
:10001000590200088D0100086D030008000000006F
:10002000000000000000000000000000790200084D
:100030008F010008000000005D0200087B0200083C
:100040005F0100085F0100085F0100085F01000810
:100050005F0100085F0100085F0100085F01000800
:100060005F0100085F0100085F0100085F010008F0
:100070005F0100085F0100085F0100085F010008E0
:100080005F0100085F0100085F0100085F010008D0
:100090005F0100085F0100085F0100085F010008C0
:1000A0005F0100085F0100085F0100085F010008B0
:1000B0005F0100085F0100085F0100085F010008A0
:1000C0005F0100085F0100085F0100085F01000890
:1000D0005F0100085F0100085F0100085F01000880
:1000E0005F0100085F0100085F0100085F01000870
:1000F0005F0100085F0100085F0100085F01000860
:100100005F0100085F0100085F0100085F0100084F
:100110005F0100085F0100085F0100085F0100083F
:100120005F0100085F0100085F0100085F0100082F
:10013000DFF80CD000F018F800480047ED03000885
:10014000000400200648804706480047FEE7FEE717
:10015000FEE7FEE7FEE7FEE7FEE7FEE7FEE7FEE777
:100160007D02000831010008064C074D06E0E068FA
:1001700040F0010394E8070098471034AC42F6D3EE
:10018000FFF7DAFF3404000844040008FEE7704774
:100190002DE9F04391F8039009F00F085FEAC96375
:1001A00044BF8B7848EA030809880B0621D004680D
:1001B00000254FF0010E4FF00F0C0027082F17D02D
:1001C0000EFA07F30B4210D00CFA05F208FA05F606
:1001D000B9F1480F24EA020242EA060404D0B9F158
:1001E000280F08BF436100E0036104350137E5E7EC
:1001F0000460B1F5807F23D3446800254FF4807EEE
:100200004FF00F0C0027082F19D00EFA07F606EA58
:100210000102B24210D10CFA05F308FA05F2B9F165
:10022000480F24EA030343EA020404D0B9F1280F7B
:1002300008BF466100E0066104350137E3E744602A
:10024000BDE8F083C068084018BF012070474161D5
:10025000704701617047FEE7FEE770477047000096
:10026000044A002911680CBF21EA0000084310600D
:10027000704700BF181002407047704782B0364880
:10028000364A016841F00101016041681140344A79
:100290004160016811400160016821F48021016022
:1002A000416821F4FE0141604FF41F01816000218B
:1002B00001910091016841F480310160016801F40D
:1002C00000310091019901310191009919B9019909
:1002D000B1F5A06FF2D10168890354BF002101215B
:1002E00000910099012930D11E490A6842F010029C
:1002F0000A600A6822F003020A600A6842F00202F9
:100300000A604168416041684160416841F4806130
:100310004160416821F47C114160416841F4E81179
:100320004160016841F08071016001688901FCD57C
:10033000416821F003014160416841F002014160E0
:10034000416801F00C010829FAD107484FF000611B
:10035000016002B0704700BF001002400000FFF8CB
:10036000FFFFF6FE0020024008ED00E0FEE700007F
:1003700006490128B8BF704701380139F9DB00BFD1
:1003800000BF00BF00BF00BFF7E700BFFFFF0F00C7
:10039000B0B50C460546032A05D0022A08D0012A2A
:1003A00018BFB0BD0AE028462146FFF74BFF28B131
:1003B00028462146BDE8B040FFF749BF2846214600
:1003C000BDE8B040FFF745BF1CB504460120ADF8BD
:1003D00004208DF807308DF8060008460121FFF74C
:1003E0003FFF01A92046FFF7D3FE1CBD084C0821A2
:1003F000202210232046FFF7E7FF42F21070FFF79C
:10040000B7FF204620210322FFF7C2FFF5E700BF18
:10041000000C014002E008C8121F08C1002AFAD1EE
:1004200070477047002001E001C1121F002AFBD174
:100430007047000044040008000000200004000091
:040440002404000888
:0400000508000131BD
:00000001FF
